:100000000C9463000C948B000C948B000C948B006C
:100010000C948B000C948B000C948B000C94CC05EE
:100020000C948B000C948B000C948B000C948B0024
:100030000C948B000C948B000C948B000C948B0014
:100040000C9480060C948B000C944E060C9428069D
:100050000C948B000C948B000C948B000C948B00F4
:100060000C94CA060C948B000000000024002700AA
:100070002A000000000023002600290000000008DC
:10008000000201000003040700000000000000005F
:10009000010204081020408001020408102001021F
:1000A0000408102000000000250028002B00040494
:1000B0000404040404040202020202020303030310
:1000C00003030200E90711241FBECFEFD8E0DEBF13
:1000D000CDBF11E0A0E0B1E0EEE9F9E102C005908A
:1000E0000D92AC35B107D9F722E0ACE5B1E001C023
:1000F0001D92AA3FB207E1F710E0C3E6D0E004C0CA
:100100002197FE010E94C70CC236D107C9F70E9491
:1001100031080C94CD0C0C94000008950895AF9212
:10012000BF92CF92DF92EF92FF920F931F93CF93E4
:10013000DF936C017B018B01040F151FEB015E0146
:10014000AE18BF08C017D10759F06991D601ED91DB
:10015000FC910190F081E02DC6010995892B79F77A
:10016000C501DF91CF911F910F91FF90EF90DF902C
:10017000CF90BF90AF900895FC01538D448D252FF3
:1001800030E0842F90E0821B930B541710F0CF9631
:10019000089501970895FC01918D828D981761F063
:1001A000A28DAE0FBF2FB11D5D968C91928D9F5F7A
:1001B0009F73928F90E008958FEF9FEF0895FC0159
:1001C000918D828D981731F0828DE80FF11D858D0C
:1001D00090E008958FEF9FEF0895FC01918D228D9F
:1001E000892F90E0805C9F4F821B91098F73992724
:1001F000089585E492E00E94ED0021E0892B09F446
:1002000020E0822F089580E090E0892B29F00E9461
:10021000F90081110C9400000895FC01A48DA80F31
:10022000B92FB11DA35ABF4F2C91848D90E0019638
:100230008F739927848FA689B7892C93A089B18958
:100240008C91837080648C93938D848D981306C0F9
:100250000288F389E02D80818F7D80830895EF925D
:10026000FF920F931F93CF93DF93EC0181E0888F70
:100270009B8D8C8D98131AC0E889F989808185FF40
:1002800015C09FB7F894EE89FF896083E889F989E2
:1002900080818370806480839FBF81E090E0DF91E4
:1002A000CF911F910F91FF90EF900895F62E0B8D37
:1002B00010E00F5F1F4F0F731127E02E8C8D8E11F2
:1002C0000CC00FB607FCFACFE889F989808185FF59
:1002D000F5CFCE010E940D01F1CFEB8DEC0FFD2F7C
:1002E000F11DE35AFF4FF0829FB7F8940B8FEA8914
:1002F000FB8980818062CFCFCF93DF93EC01888D23
:100300008823B9F0AA89BB89E889F9898C9185FD90
:1003100003C0808186FD0DC00FB607FCF7CF8C911E
:1003200085FFF2CF808185FFEDCFCE010E940D01C8
:10033000E9CFDF91CF910895833081F028F48130A7
:1003400099F08230A9F008958730A9F08830C9F07B
:100350008430B1F4809180008F7D03C08091800053
:100360008F7780938000089584B58F7784BD08953A
:1003700084B58F7DFBCF8091B0008F778093B000E4
:1003800008958091B0008F7DF9CFCF93DF93282F10
:1003900030E0F901E458FF4F8491F901E057FF4F35
:1003A000D491F901E255FF4FC491CC23A1F0811102
:1003B0000E949C01EC2FF0E0EE0FFF1FEE58FF4F64
:1003C000A591B491EC91ED2381E090E009F480E0F7
:1003D000DF91CF91089580E090E0FACF1F93CF9303
:1003E000DF93282F30E0F901E458FF4F8491F901A1
:1003F000E057FF4FD491F901E255FF4FC491CC2350
:10040000A9F0162F81110E949C01EC2FF0E0EE0F55
:10041000FF1FEC55FF4FA591B4918FB7F894EC9165
:10042000111108C0D095DE23DC938FBFDF91CF91EF
:100430001F910895DE2BF8CF9091000189130BC016
:10044000E2ECF0E0E4919FEF90930001E13049F09D
:1004500028F0E23061F060E00C94EE0110926E0042
:10046000FACF90916F009D7F90936F00F4CF9091A1
:1004700070009D7F9093700091E09093B0009091F8
:10048000B100987F94609093B1001092B300E3CFD5
:10049000CF93DF9390E0FC01E057FF4F249182550A
:1004A0009F4FFC0184918823D1F090E0880F991F21
:1004B000FC01E859FF4FA591B491FC01EC55FF4FA9
:1004C000C591D49161110EC09FB7F8948C91E22F21
:1004D000E0958E238C932881E223E8839FBFDF91F0
:1004E000CF9108958FB7F894EC91E22BEC938FBFE6
:1004F000F6CF3FB7F89480910F0290911002A0912F
:100500001102B091120226B5A89B05C02F3F19F029
:100510000196A11DB11D3FBFBA2FA92F982F882783
:10052000BC01CD01620F711D811D911D42E0660F5E
:10053000771F881F991F4A95D1F708958F929F9230
:10054000AF92BF92CF92DF92EF92FF924B015C018C
:100550000E9479026B017C010E9479026C197D096D
:100560008E099F09683E734081059105A8F321E03B
:10057000821A9108A108B10888EEC80E83E0D81E3F
:10058000E11CF11C81149104A104B10429F7FF902E
:10059000EF90DF90CF90BF90AF909F908F90089595
:1005A0002091C401260F3327331F21323105ECF48B
:1005B0002091E801FC0190E080E0243069F082E0C5
:1005C0000895A091C4012191AC014C555E4FA40F38
:1005D000B52FB11D2C930196861798F38091C40115
:1005E000680F6093C40180E0089581E0089510923F
:1005F000E80181E08093EA011092E90161E082E183
:100600000E94EE0161E083E10E94EE01E9EBF0E07F
:1006100080818E7F808380818D7F808388E480933A
:10062000B80085E48093BC000895CF93DF9391E0F8
:100630009093A3018823B9F0C091B800D091BA007B
:100640008091BC008A7B8093BC0060E082E10E94C4
:10065000EE0160E083E10E94EE010E94F702D09378
:10066000BA00C093B800DF91CF9108950895E0914A
:100670001A0280911902E81730F4F0E0E258FE4FB8
:10068000808190E008958FEF9FEF089590911A0276
:10069000809119022FEF3FEF981748F4E92FF0E00F
:1006A000E258FE4F208130E09F5F90931A02C9010B
:1006B00008958091190290911A02891B990B08954F
:1006C000CF92DF92EF92FF920F931F93CF93DF931E
:1006D0007C01CB018A0120917D01222389F0EB016D
:1006E0006B01C40ED51ECC15DD0569F06991D701EB
:1006F000ED91FC910190F081E02DC7010995F3CFB8
:10070000642F0E94D002C801DF91CF911F910F91F9
:10071000FF90EF90DF90CF900895CF93DF931F92DB
:10072000CDB7DEB7698320917D012223F9F02091B6
:100730001702203258F021E030E0FC01338322839D
:1007400090E080E00F90DF91CF91089580911802A2
:10075000E82FF0E0E35AFE4F998190838F5F8093FA
:1007600018028093170281E090E0ECCF61E0CE01A7
:1007700001960E94D002F7CFCF92DF92EF92FF92C4
:100780000F931F93CF93DF93FC01C48121E020934B
:100790007D01C0935C0110921802109217028385AC
:1007A000682B82EE92E00E948D03D0911702D13225
:1007B00008F092C00E9479026B017C018091E801EF
:1007C000811165C082E08093E80181E08093EA01B5
:1007D0008FEF8093E70110920C02D0930B02ADE5EE
:1007E000B1E0EBEEF1E080E0D81385C010920D028D
:1007F00080910D02CC0FC82BC0930D028091E901AE
:10080000813009F07CC01092E9010E9479026B01ED
:100810007C0180910D028093BB0080919F0190919B
:10082000A001A091A101B091A201892B8A2B8B2B51
:1008300099F00E94790200919F011091A0012091EE
:10084000A1013091A2016C197D098E099F0906173B
:10085000170728073907E0F18091BC0083FDD9CF45
:1008600085EC8093BC000E9479026B017C01809131
:10087000E801823009F445C08091E7018F3F61F1C2
:100880008091E701803241F18091E70125C080919C
:100890009F019091A001A091A101B091A201892B8B
:1008A0008A2B8B2B09F48ACF0E94790200919F0139
:1008B0001091A0012091A1013091A2016C197D0934
:1008C0008E099F09061717072807390708F076CF02
:1008D00080919E010E941503109218021092170237
:1008E00010927D01DF91CF911F910F91FF90EF90BA
:1008F000DF90CF9008959D9191938F5F75CF85EE96
:10090000B0CF80919F019091A001A091A101B091E1
:10091000A201892B8A2B8B2B09F4A9CF0E94790283
:1009200000919F011091A0012091A1013091A2019D
:100930006C197D098E099F090617170728073907C3
:1009400008F095CFC5CF089590E080E008958F928C
:100950009F92AF92BF920F931F93CF93DF93CDB728
:10096000DEB7A1970FB6F894DEBF0FBECDBF19A2B8
:10097000423008F44AE08E010F5D1F4F842E912C07
:10098000B12CA12CA50194010E947D0CE62FB90188
:10099000CA01EA3044F5E05DD801EE938D01232BC6
:1009A000242B252B79F790E080E0109769F0FD016A
:1009B00001900020E9F73197AF014A1B5B0BBD01A5
:1009C0008EEE92E00E948F00A1960FB6F894DEBFE3
:1009D0000FBECDBFDF91CF911F910F91BF90AF9010
:1009E0009F908F900895E95CD7CFFC010190002083
:1009F000E9F73197AF01481B590BBC018EEE92E02D
:100A00000C948F000F931F93CF938C01C62F0E94DD
:100A1000BC036C2F6460C8010E94BC036C2F6B7F09
:100A2000C8010E94BC0383EC90E00197F1F7CF91DD
:100A30001F910F9108950F931F93CF93DF938C0114
:100A4000D62FC42F607F642B0E94020580E1D89FBF
:100A5000B00111246C2BC801DF91CF911F910F9130
:100A60000C940205CF93DF93CDB7DEB728970FB66E
:100A7000F894DEBF0FBECDBF98E0E1E0F1E0DE010B
:100A8000119601900D929A95E1F79091F6029617C2
:100A900008F46FEF262F30E0220F331F41E050E0C3
:100AA0004C0F5D1F240F351FF9016081680F6068CE
:100AB00040E08EEE92E028960FB6F894DEBF0FBEAF
:100AC000CDBFDF91CF910C941B0541E00E941B0527
:100AD00081E090E00895CF92DF92EF92FF926C0157
:100AE000990FEE08FF08F7FE16C041E06DE28EEEAA
:100AF00092E00E941B0566277727CB016C197D09C0
:100B00008E099F094AE00E94A7040196FF90EF908A
:100B1000DF90CF9008954AE0C701B601FF90EF90B3
:100B2000DF90CF900C94A70485ED8093BC0080915A
:100B30009F019091A001A091A101B091A2010796FF
:100B4000A11DB11D23E0B695A795979587952A9588
:100B5000D1F72091BC0024FD03C01092E801089554
:100B600040919F015091A0016091A1017091A2015B
:100B7000452B462B472B69F30097A105B10541F0A2
:100B800025E32A95F1F700000197A109B109E1CF0A
:100B900080919E010C9415031F920F920FB60F9235
:100BA00011242F933F934F935F936F937F938F9372
:100BB0009F93AF93BF93EF93FF9380912402909103
:100BC0002502A0912602B0912702892B8A2B8B2B1C
:100BD000D1F190911F02E0912002F09121028081D9
:100BE000892780838091240290912502A09126027A
:100BF000B0912702181619061A061B069CF480915C
:100C0000240290912502A0912602B091270201971B
:100C1000A109B1098093240290932502A093260292
:100C2000B0932702FF91EF91BF91AF919F918F9168
:100C30007F916F915F914F913F912F910F900FBED8
:100C40000F901F901895809100010E941C02EACF1E
:100C50001F920F920FB60F9211242F933F934F9331
:100C60005F936F937F938F939F93AF93BF93EF9314
:100C7000FF9385E492E00E940D01FF91EF91BF91F7
:100C8000AF919F918F917F916F915F914F913F9124
:100C90002F910F900FBE0F901F9018951F920F92DB
:100CA0000FB60F9211242F938F939F93EF93FF937F
:100CB000E0915502F09156028081E0915B02F09143
:100CC0005C0282FD1BC0908180915E028F5F8F73FA
:100CD00020915F02821741F0E0915E02F0E0EB5B51
:100CE000FD4F958F80935E02FF91EF919F918F91C1
:100CF0002F910F900FBE0F901F9018958081F4CF09
:100D00001F920F920FB60F9211242F933F938F9340
:100D10009F93AF93BF9380911B0290911C02A0916F
:100D20001D02B0911E0230910E0223E0230F2D37D9
:100D300058F50196A11DB11D20930E0280931B0250
:100D400090931C02A0931D02B0931E0280910F028B
:100D500090911002A0911102B09112020196A11D72
:100D6000B11D80930F0290931002A0931102B093D3
:100D70001202BF91AF919F918F913F912F910F9050
:100D80000FBE0F901F90189526E8230F0296A11D05
:100D9000B11DD2CF1F920F920FB60F9211242F9335
:100DA0003F934F935F936F937F938F939F93AF93F3
:100DB000BF93EF93FF938091B900887F803609F449
:100DC0004AC0F0F5883209F4A7C018F5803109F45B
:100DD0009BC0B8F4882309F4F9C0883009F494C0A2
:100DE000FF91EF91BF91AF919F918F917F916F9103
:100DF0005F914F913F912F910F900FBE0F901F90D9
:100E00001895883109F488C0803251F78093E70142
:100E100014C0803409F49DC040F48033B9F38833A2
:100E2000F9F68093E70185ECB0C0803509F485C000
:100E3000883509F496C0883499F60E949405D0CF7D
:100E4000883909F48CC038F5883729F050F4883691
:100E500011F0803729F683E08093E8011092E601D3
:100E600057C0883809F47BC0803919F0803809F000
:100E7000B7CF8091E601803208F071C0E091E601C1
:100E800081E08E0F8093E6018091BB00F0E0EA5391
:100E9000FE4F80833DC0803B39F0E0F4803A09F496
:100EA00079C0883A09F09CCF84E08093E8011092E1
:100EB000C5011092C401E0911502F0911602099546
:100EC0008091C40181110FC081E08093C401109210
:100ED000A40109C0803C09F4A6CF883C09F4A3CF43
:100EE000883B09F07DCFE091C50181E08E0F8093B2
:100EF000C501F0E0EC55FE4F80818093BB009091DE
:100F0000C5018091C40129C080910D028093BB006E
:100F100085EC8093BC0064CF90910C0280910B0211
:100F2000981758F5E0910C0281E08E0F80930C0227
:100F3000F0E0E551FE4F8081E9CFE0910C0281E0C5
:100F40008E0F80930C028091BB00F0E0E551FE4FC4
:100F5000808390910C0280910B029817C8F285E86B
:100F6000D8CFE0910C0281E08E0F80930C0280912B
:100F7000BB00F0E0E551FE4F80838091EA018111D2
:100F80005CCF81E08093E90184EA8093BC001092F9
:100F9000E80126CF85EC8093BC001092E801809197
:100FA000E601803230F4E091E601F0E0EA53FE4FD2
:100FB00010826091E60170E0E0911302F09114025A
:100FC00086EC91E009951092E6010ACF1092E701B4
:100FD00034CFE5E4F2E01382128288EE93E0A0E0E1
:100FE000B0E084839583A683B7832DE031E031831D
:100FF000208325EC30E03587248724EC30E03787E8
:10100000268720EC30E0318B208B21EC30E0338BD5
:10101000228B22EC30E0358B248B26EC30E0378BB2
:10102000268B118E128E138E148EE2EEF2E0138256
:10103000128284839583A683B7838FE191E09183A5
:101040008083EEEEF2E01382128281E391E09183DD
:10105000808380E2848380E1818782E082871386B7
:101060000895789484B5826084BD84B5816084BD20
:1010700085B5826085BD85B5816085BD80916E0036
:10108000816080936E001092810080918100826067
:1010900080938100809181008160809381008091A4
:1010A00080008160809380008091B1008460809393
:1010B000B1008091B00081608093B00080917A008F
:1010C000846080937A0080917A00826080937A00B5
:1010D00080917A00816080937A0080917A008068A4
:1010E00080937A001092C10010921A021092190295
:1010F00010921802109217020E94F7028DE890E0F9
:1011000090931602809315028EE890E0909314025B
:10111000809313021092F3028091F802823018F04B
:1011200098E09093F3028093F60262E370E080E02F
:1011300090E00E949E026091F9028EEE92E00E9481
:10114000BC0368EE73E080E090E00E949E0260E3E2
:101150008EEE92E00E940205CBE4D6E4CE01019728
:10116000F1F760E38EEE92E00E9402052197F1F71D
:1011700060E38EEE92E00E94020583E592E0019723
:10118000F1F760E28EEE92E00E9402056091F302B8
:10119000606240E08EEE92E00E941B0584E0809346
:1011A000F40240E06CE08EEE92E00E941B0540E00D
:1011B00061E08EEE92E00E941B05CBE3DFE1CE0101
:1011C0000197F1F712E01093F50240E066E08EEE31
:1011D00092E00E941B0540E062E08EEE92E00E94E9
:1011E0001B052197F1F7C8E0C093F90260E08EEE8D
:1011F00092E00E94BC03C093F90260E08EEE92E0A0
:101200000E94BC0360E084E00E94320589E391E023
:101210000E94F50461E083E00E94320583E491E0DE
:101220000E94F504E0915502F09156021083E0917E
:101230005102F09152021082E0915302F091540257
:101240008FEC808310925D02E0915902F0915A0276
:1012500086E08083E0915702F0915802808180619E
:101260008083E0915702F0915802808188608083EA
:10127000E0915702F0915802808180688083E0916C
:101280005702F091580280818F7D808360E082E078
:101290000E94480260E083E00E94480260E084E02F
:1012A0000E94480261E085E00E94480268E4462E00
:1012B00068EE562E66246394712CC0914402C0934C
:1012C000430282E00E94C501809344028130F9F418
:1012D000C1111DC0809342022FB7F89480911B0268
:1012E00090911C02A0911D02B0911E022FBF80930D
:1012F0003A0290933B02A0933C02B0933D021092BD
:101300003E0210923F021092400210924102D2E33C
:1013100055E9252E50E0352E80914202882309F4AC
:1013200086C28FB7F89480901B0290901C02A09008
:101330001D02B0901E028FBF9401A50160E070E015
:1013400080E090E0A0903A02B0903B02C0903C0256
:10135000D0903D02E0903E02F0903F0200914002AA
:10136000109141020E94BE0C283E334041055105B8
:10137000610571058105910509F065C0809138020C
:1013800090913902019690933902809338028FB779
:10139000F89480901B0290901C02A0901D02B090C7
:1013A0001E028FBF80923A0290923B02A0923C02B2
:1013B000B0923D0210923E0210923F021092400203
:1013C0001092410240E061E08EEE92E00E941B0527
:1013D0008BE39FE10197F1F760E080E00E94320526
:1013E0008FE491E00E94F50481E591E00E94F5040C
:1013F00085E591E00E94F50487E591E00E94F504FF
:1014000061E080E00E9432058FE491E00E94F504E3
:101410008FE491E00E94F5048091360290913702AA
:101420000E946B058FE491E00E94F50485E591E050
:101430000E94F50480913802909139020E946B0558
:1014400085E00E941C028091360290913702209123
:101450003402309135028217930709F436C1D89FC0
:101460006001D99FD00C112480910001853009F0D2
:1014700064C0E2ECF0E0C491C7FD1FC161E085E00B
:101480000E944802CC2319F0C23009F07FC1F12C30
:10149000E12C60E072E18AE790E0A70196010E94EA
:1014A0009F0C49015A01DA01C9010197A109B1094B
:1014B0008F3F9105A105B10509F00CF44BC160E423
:1014C00072E48FE090E0A70196010E949F0C2150EA
:1014D000310941095109C23009F0A1C082E02F3F12
:1014E00031054105510509F00CF4D8C060E970EDF3
:1014F00083E090E0A70196010E949F0C21503109E2
:101500004109510983E02F3F31054105510509F09B
:101510000CF4C4C0C301B201A70196010E949F0C44
:1015200021503109410951092F3F3105410551052C
:1015300011F00CF0EEC084E0B1C08F3F09F0BDC0E7
:1015400085E080930001E2ECF0E0C491CF3F09F424
:10155000B4C0C13021F150F0C23009F43EC0C7FD23
:10156000ACC061E085E00E9448028ECF14BC15BC7F
:1015700084B5826084BD85B5816085BDE3EBF0E014
:101580008491E82FF0E0EE0FFF1FEC55FF4F85919F
:101590009491F101849180932302C0E06FCF109267
:1015A000800010928100809181008860809381008A
:1015B00080918100816080938100E3EBF0E0849171
:1015C000E82FF0E0EE0FFF1FEC55FF4F859194914F
:1015D000F10184918093220251CF1092B0001092B9
:1015E000B1008091B00082608093B0008091B10022
:1015F00081608093B100E3EBF0E08491E82FF0E0AC
:10160000EE0FFF1FEC55FF4F8591949190932102AF
:1016100080932002F101849180931F022FCF2F3FEE
:1016200031054105510509F00CF4AEC0C301B2010A
:10163000A70196010E949F0C2150310941095109CF
:10164000CC2309F451C12F3F31054105510509F063
:101650000CF471CF62E17AE780E090E0A701960197
:101660000E949F0C2150310941095109CC2309F4F2
:1016700024C186E02F3F31054105510579F070F016
:101680008AE0B594A794979487948A95D1F7A50199
:101690009401215031094109510987E09091B1002D
:1016A000987F892B8093B100C13009F498C0C23073
:1016B00009F4AAC0CC2309F455C080913602909158
:1016C00037029093350280933402809138029091D2
:1016D0003902CC9769F41092390210923802809145
:1016E000360290913702019690933702809336022A
:1016F000C0913302C093320283E00E94C5018093FF
:101700003302813009F008CEC11106CE1092420298
:1017100003CE64E274EF80E090E0A70196010E949E
:101720009F0C215031094109510985E02F3F3105B6
:101730004105510509F008F4B1CF62E17AE780E094
:1017400090E0A70196010E949F0C215031094109A8
:1017500051098FCF9C0181E0C111A0CF95B5987F31
:10176000892B85BD27BD8FEF9FEFDC0180932C0275
:1017700090932D02A0932E02B0932F0280916E00C1
:10178000826080936E0099CF82E0E6CFF12CE12C4D
:1017900060E072E18AE790E0A70196010E949F0C49
:1017A000215031094109510991E021153105F1E03C
:1017B0004F0751055CF0C301B201A70196010E94D9
:1017C0009F0C215031094109510993E0C13009F0C2
:1017D0006BCF80918100887F892B8093810030932B
:1017E0008900209388008FEF9FEFDC01809328020F
:1017F00090932902A0932A02B0932B0280916F004C
:10180000826080936F0059CF2093B3008FEF9FEFDA
:10181000DC018093240290932502A0932602B093CA
:1018200027028091700082608093700046CFC09143
:101830003102C093300284E00E94C50180933102DE
:10184000813071F5C1112CC010923902109238020A
:10185000109237021092360261E080E00E94320559
:101860008FE491E00E94F5048FE491E00E94F5047A
:1018700080913602909137020E946B058FE491E0CF
:101880000E94F50485E591E00E94F50480913802FC
:10189000909139020E946B058FE491E00E94F5045B
:1018A00080E090E0892B09F408CD0E94F90088239C
:1018B00009F403CD0E94000000CD84E02F3F3105E4
:1018C0004105510509F008F449CF9AE0B594A79471
:1018D000979487949A95D1F7A501940121503109E5
:1018E0004109510985E03ACF83E02F3F3105410599
:1018F000510509F00CF432CFADCEA1E21A2EAA1B8D
:10190000BB1BFD010DC0AA1FBB1FEE1FFF1FA217AF
:10191000B307E407F50720F0A21BB30BE40BF50BAC
:10192000661F771F881F991F1A9469F76095709535
:10193000809590959B01AC01BD01CF010895052EC6
:1019400097FB1EF400940E94B60C57FD07D00E942E
:101950007D0C07FC03D04EF40C94B60C50954095CA
:10196000309521953F4F4F4F5F4F0895909580954B
:10197000709561957F4F8F4F9F4F08952A193B09AE
:101980004C095D096E097F09800B910B0895EE0FDC
:0E199000FF1F0590F491E02D0994F894FFCF0D
:10199E00FF0000400014005400000000002F018FD3
:1019AE0000BC007C01ED00CB00DF00000000008DCC
:1019BE00036003A4043603590346033703000000F3
:1019CE000065058F00A404A30453746F70776174CF
:1019DE0063680050726573732053746172740020D3
:0C19EE00006D696E003A00736563000034
:00000001FF
